{
  "_format": "hh-sol-artifact-1",
  "contractName": "ClaimSettlement",
  "sourceName": "contracts/ClaimSettlement.sol",
  "abi": [
    {
      "inputs": [],
      "stateMutability": "nonpayable",
      "type": "constructor"
    },
    {
      "inputs": [],
      "name": "AccessControlBadConfirmation",
      "type": "error"
    },
    {
      "inputs": [
        {
          "internalType": "address",
          "name": "account",
          "type": "address"
        },
        {
          "internalType": "bytes32",
          "name": "neededRole",
          "type": "bytes32"
        }
      ],
      "name": "AccessControlUnauthorizedAccount",
      "type": "error"
    },
    {
      "inputs": [],
      "name": "EnforcedPause",
      "type": "error"
    },
    {
      "inputs": [],
      "name": "ExpectedPause",
      "type": "error"
    },
    {
      "inputs": [],
      "name": "ReentrancyGuardReentrantCall",
      "type": "error"
    },
    {
      "anonymous": false,
      "inputs": [
        {
          "indexed": true,
          "internalType": "uint256",
          "name": "id",
          "type": "uint256"
        },
        {
          "indexed": false,
          "internalType": "uint256",
          "name": "amount",
          "type": "uint256"
        }
      ],
      "name": "ClaimSettled",
      "type": "event"
    },
    {
      "anonymous": false,
      "inputs": [
        {
          "indexed": true,
          "internalType": "uint256",
          "name": "id",
          "type": "uint256"
        },
        {
          "indexed": false,
          "internalType": "string",
          "name": "hospitalId",
          "type": "string"
        },
        {
          "indexed": false,
          "internalType": "uint256",
          "name": "amount",
          "type": "uint256"
        }
      ],
      "name": "ClaimSubmitted",
      "type": "event"
    },
    {
      "anonymous": false,
      "inputs": [
        {
          "indexed": true,
          "internalType": "uint256",
          "name": "id",
          "type": "uint256"
        },
        {
          "indexed": false,
          "internalType": "bool",
          "name": "isValid",
          "type": "bool"
        },
        {
          "indexed": false,
          "internalType": "uint256",
          "name": "fraudScore",
          "type": "uint256"
        }
      ],
      "name": "ClaimValidated",
      "type": "event"
    },
    {
      "anonymous": false,
      "inputs": [
        {
          "indexed": false,
          "internalType": "address",
          "name": "account",
          "type": "address"
        }
      ],
      "name": "Paused",
      "type": "event"
    },
    {
      "anonymous": false,
      "inputs": [
        {
          "indexed": true,
          "internalType": "bytes32",
          "name": "role",
          "type": "bytes32"
        },
        {
          "indexed": true,
          "internalType": "bytes32",
          "name": "previousAdminRole",
          "type": "bytes32"
        },
        {
          "indexed": true,
          "internalType": "bytes32",
          "name": "newAdminRole",
          "type": "bytes32"
        }
      ],
      "name": "RoleAdminChanged",
      "type": "event"
    },
    {
      "anonymous": false,
      "inputs": [
        {
          "indexed": true,
          "internalType": "bytes32",
          "name": "role",
          "type": "bytes32"
        },
        {
          "indexed": true,
          "internalType": "address",
          "name": "account",
          "type": "address"
        },
        {
          "indexed": true,
          "internalType": "address",
          "name": "sender",
          "type": "address"
        }
      ],
      "name": "RoleGranted",
      "type": "event"
    },
    {
      "anonymous": false,
      "inputs": [
        {
          "indexed": true,
          "internalType": "bytes32",
          "name": "role",
          "type": "bytes32"
        },
        {
          "indexed": true,
          "internalType": "address",
          "name": "account",
          "type": "address"
        },
        {
          "indexed": true,
          "internalType": "address",
          "name": "sender",
          "type": "address"
        }
      ],
      "name": "RoleRevoked",
      "type": "event"
    },
    {
      "anonymous": false,
      "inputs": [
        {
          "indexed": false,
          "internalType": "address",
          "name": "account",
          "type": "address"
        }
      ],
      "name": "Unpaused",
      "type": "event"
    },
    {
      "anonymous": false,
      "inputs": [
        {
          "indexed": true,
          "internalType": "address",
          "name": "validator",
          "type": "address"
        }
      ],
      "name": "ValidatorAdded",
      "type": "event"
    },
    {
      "anonymous": false,
      "inputs": [
        {
          "indexed": true,
          "internalType": "address",
          "name": "validator",
          "type": "address"
        }
      ],
      "name": "ValidatorRemoved",
      "type": "event"
    },
    {
      "inputs": [],
      "name": "DEFAULT_ADMIN_ROLE",
      "outputs": [
        {
          "internalType": "bytes32",
          "name": "",
          "type": "bytes32"
        }
      ],
      "stateMutability": "view",
      "type": "function"
    },
    {
      "inputs": [],
      "name": "HOSPITAL_ROLE",
      "outputs": [
        {
          "internalType": "bytes32",
          "name": "",
          "type": "bytes32"
        }
      ],
      "stateMutability": "view",
      "type": "function"
    },
    {
      "inputs": [],
      "name": "VALIDATOR_ROLE",
      "outputs": [
        {
          "internalType": "bytes32",
          "name": "",
          "type": "bytes32"
        }
      ],
      "stateMutability": "view",
      "type": "function"
    },
    {
      "inputs": [
        {
          "internalType": "address",
          "name": "_validator",
          "type": "address"
        }
      ],
      "name": "addValidator",
      "outputs": [],
      "stateMutability": "nonpayable",
      "type": "function"
    },
    {
      "inputs": [
        {
          "internalType": "uint256",
          "name": "",
          "type": "uint256"
        }
      ],
      "name": "claimExists",
      "outputs": [
        {
          "internalType": "bool",
          "name": "",
          "type": "bool"
        }
      ],
      "stateMutability": "view",
      "type": "function"
    },
    {
      "inputs": [
        {
          "internalType": "uint256",
          "name": "",
          "type": "uint256"
        }
      ],
      "name": "claims",
      "outputs": [
        {
          "internalType": "uint256",
          "name": "id",
          "type": "uint256"
        },
        {
          "internalType": "string",
          "name": "hospitalId",
          "type": "string"
        },
        {
          "internalType": "uint256",
          "name": "amount",
          "type": "uint256"
        },
        {
          "internalType": "string",
          "name": "currency",
          "type": "string"
        },
        {
          "internalType": "string",
          "name": "ipfsHash",
          "type": "string"
        },
        {
          "internalType": "enum ClaimSettlement.ClaimStatus",
          "name": "status",
          "type": "uint8"
        },
        {
          "internalType": "uint256",
          "name": "timestamp",
          "type": "uint256"
        }
      ],
      "stateMutability": "view",
      "type": "function"
    },
    {
      "inputs": [
        {
          "internalType": "uint256",
          "name": "_id",
          "type": "uint256"
        }
      ],
      "name": "getClaim",
      "outputs": [
        {
          "components": [
            {
              "internalType": "uint256",
              "name": "id",
              "type": "uint256"
            },
            {
              "internalType": "string",
              "name": "hospitalId",
              "type": "string"
            },
            {
              "internalType": "uint256",
              "name": "amount",
              "type": "uint256"
            },
            {
              "internalType": "string",
              "name": "currency",
              "type": "string"
            },
            {
              "internalType": "string",
              "name": "ipfsHash",
              "type": "string"
            },
            {
              "internalType": "enum ClaimSettlement.ClaimStatus",
              "name": "status",
              "type": "uint8"
            },
            {
              "internalType": "uint256",
              "name": "timestamp",
              "type": "uint256"
            }
          ],
          "internalType": "struct ClaimSettlement.Claim",
          "name": "",
          "type": "tuple"
        }
      ],
      "stateMutability": "view",
      "type": "function"
    },
    {
      "inputs": [
        {
          "internalType": "bytes32",
          "name": "role",
          "type": "bytes32"
        }
      ],
      "name": "getRoleAdmin",
      "outputs": [
        {
          "internalType": "bytes32",
          "name": "",
          "type": "bytes32"
        }
      ],
      "stateMutability": "view",
      "type": "function"
    },
    {
      "inputs": [
        {
          "internalType": "bytes32",
          "name": "role",
          "type": "bytes32"
        },
        {
          "internalType": "address",
          "name": "account",
          "type": "address"
        }
      ],
      "name": "grantRole",
      "outputs": [],
      "stateMutability": "nonpayable",
      "type": "function"
    },
    {
      "inputs": [
        {
          "internalType": "bytes32",
          "name": "role",
          "type": "bytes32"
        },
        {
          "internalType": "address",
          "name": "account",
          "type": "address"
        }
      ],
      "name": "hasRole",
      "outputs": [
        {
          "internalType": "bool",
          "name": "",
          "type": "bool"
        }
      ],
      "stateMutability": "view",
      "type": "function"
    },
    {
      "inputs": [],
      "name": "pause",
      "outputs": [],
      "stateMutability": "nonpayable",
      "type": "function"
    },
    {
      "inputs": [],
      "name": "paused",
      "outputs": [
        {
          "internalType": "bool",
          "name": "",
          "type": "bool"
        }
      ],
      "stateMutability": "view",
      "type": "function"
    },
    {
      "inputs": [
        {
          "internalType": "address",
          "name": "_validator",
          "type": "address"
        }
      ],
      "name": "removeValidator",
      "outputs": [],
      "stateMutability": "nonpayable",
      "type": "function"
    },
    {
      "inputs": [
        {
          "internalType": "bytes32",
          "name": "role",
          "type": "bytes32"
        },
        {
          "internalType": "address",
          "name": "callerConfirmation",
          "type": "address"
        }
      ],
      "name": "renounceRole",
      "outputs": [],
      "stateMutability": "nonpayable",
      "type": "function"
    },
    {
      "inputs": [
        {
          "internalType": "bytes32",
          "name": "role",
          "type": "bytes32"
        },
        {
          "internalType": "address",
          "name": "account",
          "type": "address"
        }
      ],
      "name": "revokeRole",
      "outputs": [],
      "stateMutability": "nonpayable",
      "type": "function"
    },
    {
      "inputs": [
        {
          "internalType": "uint256",
          "name": "_id",
          "type": "uint256"
        }
      ],
      "name": "settleClaim",
      "outputs": [],
      "stateMutability": "nonpayable",
      "type": "function"
    },
    {
      "inputs": [
        {
          "internalType": "uint256",
          "name": "_id",
          "type": "uint256"
        },
        {
          "internalType": "string",
          "name": "_hospitalId",
          "type": "string"
        },
        {
          "internalType": "uint256",
          "name": "_amount",
          "type": "uint256"
        },
        {
          "internalType": "string",
          "name": "_currency",
          "type": "string"
        },
        {
          "internalType": "string",
          "name": "_ipfsHash",
          "type": "string"
        }
      ],
      "name": "submitClaim",
      "outputs": [],
      "stateMutability": "nonpayable",
      "type": "function"
    },
    {
      "inputs": [
        {
          "internalType": "bytes4",
          "name": "interfaceId",
          "type": "bytes4"
        }
      ],
      "name": "supportsInterface",
      "outputs": [
        {
          "internalType": "bool",
          "name": "",
          "type": "bool"
        }
      ],
      "stateMutability": "view",
      "type": "function"
    },
    {
      "inputs": [],
      "name": "unpause",
      "outputs": [],
      "stateMutability": "nonpayable",
      "type": "function"
    },
    {
      "inputs": [
        {
          "internalType": "uint256",
          "name": "_id",
          "type": "uint256"
        },
        {
          "internalType": "bool",
          "name": "_isValid",
          "type": "bool"
        },
        {
          "internalType": "uint256",
          "name": "_fraudScore",
          "type": "uint256"
        }
      ],
      "name": "validateClaim",
      "outputs": [],
      "stateMutability": "nonpayable",
      "type": "function"
    }
  ],
  "bytecode": "0x60806040523480156200001157600080fd5b5060016000819055506200002f6000801b336200006960201b60201c565b50620000627f21702c8af46127c7fa207f89d0b0a8441bb32959a0ac7df790e9ab1a25c98926336200006960201b60201c565b50620001df565b60006200007d83836200016c60201b60201c565b6200016157600180600085815260200190815260200160002060000160008473ffffffffffffffffffffffffffffffffffffffff1673ffffffffffffffffffffffffffffffffffffffff16815260200190815260200160002060006101000a81548160ff021916908315150217905550620000fd620001d760201b60201c565b73ffffffffffffffffffffffffffffffffffffffff168273ffffffffffffffffffffffffffffffffffffffff16847f2f8788117e7eff1d82e926ec794901d17c78024a50270940304540a733656f0d60405160405180910390a46001905062000166565b600090505b92915050565b60006001600084815260200190815260200160002060000160008373ffffffffffffffffffffffffffffffffffffffff1673ffffffffffffffffffffffffffffffffffffffff16815260200190815260200160002060009054906101000a900460ff16905092915050565b600033905090565b61248280620001ef6000396000f3fe608060405234801561001057600080fd5b506004361061012c5760003560e01c80638456cb59116100ad578063c49baebe11610071578063c49baebe14610333578063d547741f14610351578063e406f1d81461036d578063edcd430f14610389578063f6ba6678146103a55761012c565b80638456cb591461028957806391d1485414610293578063a217fddf146102c3578063a888c2cd146102e1578063ae3b7b67146103175761012c565b806340a141ff116100f457806340a141ff146101d35780634d238c8e146101ef5780634e07e3df1461020b5780635aef24471461023b5780635c975abb1461026b5761012c565b806301ffc9a714610131578063248a9ca3146101615780632f2ff15d1461019157806336568abe146101ad5780633f4ba83a146101c9575b600080fd5b61014b60048036038101906101469190611644565b6103c3565b604051610158919061168c565b60405180910390f35b61017b600480360381019061017691906116dd565b61043d565b6040516101889190611719565b60405180910390f35b6101ab60048036038101906101a69190611792565b61045d565b005b6101c760048036038101906101c29190611792565b61047f565b005b6101d16104fa565b005b6101ed60048036038101906101e891906117d2565b610512565b005b610209600480360381019061020491906117d2565b610590565b005b61022560048036038101906102209190611835565b61060e565b604051610232919061168c565b60405180910390f35b61025560048036038101906102509190611835565b61062e565b6040516102629190611a22565b60405180910390f35b61027361086a565b604051610280919061168c565b60405180910390f35b610291610881565b005b6102ad60048036038101906102a89190611792565b610899565b6040516102ba919061168c565b60405180910390f35b6102cb610904565b6040516102d89190611719565b60405180910390f35b6102fb60048036038101906102f69190611835565b61090b565b60405161030e9796959493929190611aac565b60405180910390f35b610331600480360381019061032c9190611b5c565b610af2565b005b61033b610ce3565b6040516103489190611719565b60405180910390f35b61036b60048036038101906103669190611792565b610d07565b005b61038760048036038101906103829190611835565b610d29565b005b6103a3600480360381019061039e9190611ce4565b610e86565b005b6103ad611113565b6040516103ba9190611719565b60405180910390f35b60007f7965db0b000000000000000000000000000000000000000000000000000000007bffffffffffffffffffffffffffffffffffffffffffffffffffffffff1916827bffffffffffffffffffffffffffffffffffffffffffffffffffffffff19161480610436575061043582611137565b5b9050919050565b600060016000838152602001908152602001600020600101549050919050565b6104668261043d565b61046f816111a1565b61047983836111b5565b50505050565b6104876112a6565b73ffffffffffffffffffffffffffffffffffffffff168173ffffffffffffffffffffffffffffffffffffffff16146104eb576040517f6697b23200000000000000000000000000000000000000000000000000000000815260040160405180910390fd5b6104f582826112ae565b505050565b6000801b610507816111a1565b61050f6113a1565b50565b6000801b61051f816111a1565b6105497f21702c8af46127c7fa207f89d0b0a8441bb32959a0ac7df790e9ab1a25c9892683610d07565b8173ffffffffffffffffffffffffffffffffffffffff167fe1434e25d6611e0db941968fdc97811c982ac1602e951637d206f5fdda9dd8f160405160405180910390a25050565b6000801b61059d816111a1565b6105c77f21702c8af46127c7fa207f89d0b0a8441bb32959a0ac7df790e9ab1a25c989268361045d565b8173ffffffffffffffffffffffffffffffffffffffff167fe366c1c0452ed8eec96861e9e54141ebff23c9ec89fe27b996b45f5ec388498760405160405180910390a25050565b60046020528060005260406000206000915054906101000a900460ff1681565b610636611589565b600360008381526020019081526020016000206040518060e00160405290816000820154815260200160018201805461066e90611de2565b80601f016020809104026020016040519081016040528092919081815260200182805461069a90611de2565b80156106e75780601f106106bc576101008083540402835291602001916106e7565b820191906000526020600020905b8154815290600101906020018083116106ca57829003601f168201915b505050505081526020016002820154815260200160038201805461070a90611de2565b80601f016020809104026020016040519081016040528092919081815260200182805461073690611de2565b80156107835780601f1061075857610100808354040283529160200191610783565b820191906000526020600020905b81548152906001019060200180831161076657829003601f168201915b5050505050815260200160048201805461079c90611de2565b80601f01602080910402602001604051908101604052809291908181526020018280546107c890611de2565b80156108155780601f106107ea57610100808354040283529160200191610815565b820191906000526020600020905b8154815290600101906020018083116107f857829003601f168201915b505050505081526020016005820160009054906101000a900460ff16600481111561084357610842611901565b5b600481111561085557610854611901565b5b81526020016006820154815250509050919050565b6000600260009054906101000a900460ff16905090565b6000801b61088e816111a1565b610896611404565b50565b60006001600084815260200190815260200160002060000160008373ffffffffffffffffffffffffffffffffffffffff1673ffffffffffffffffffffffffffffffffffffffff16815260200190815260200160002060009054906101000a900460ff16905092915050565b6000801b81565b600360205280600052604060002060009150905080600001549080600101805461093490611de2565b80601f016020809104026020016040519081016040528092919081815260200182805461096090611de2565b80156109ad5780601f10610982576101008083540402835291602001916109ad565b820191906000526020600020905b81548152906001019060200180831161099057829003601f168201915b5050505050908060020154908060030180546109c890611de2565b80601f01602080910402602001604051908101604052809291908181526020018280546109f490611de2565b8015610a415780601f10610a1657610100808354040283529160200191610a41565b820191906000526020600020905b815481529060010190602001808311610a2457829003601f168201915b505050505090806004018054610a5690611de2565b80601f0160208091040260200160405190810160405280929190818152602001828054610a8290611de2565b8015610acf5780601f10610aa457610100808354040283529160200191610acf565b820191906000526020600020905b815481529060010190602001808311610ab257829003601f168201915b5050505050908060050160009054906101000a900460ff16908060060154905087565b7f21702c8af46127c7fa207f89d0b0a8441bb32959a0ac7df790e9ab1a25c98926610b1c816111a1565b610b24611467565b6004600085815260200190815260200160002060009054906101000a900460ff16610b84576040517f08c379a0000000000000000000000000000000000000000000000000000000008152600401610b7b90611e5f565b60405180910390fd5b60006004811115610b9857610b97611901565b5b6003600086815260200190815260200160002060050160009054906101000a900460ff166004811115610bce57610bcd611901565b5b14610c0e576040517f08c379a0000000000000000000000000000000000000000000000000000000008152600401610c0590611ecb565b60405180910390fd5b828015610c1b5750601482105b15610c645760026003600086815260200190815260200160002060050160006101000a81548160ff02191690836004811115610c5a57610c59611901565b5b0217905550610ca3565b600380600086815260200190815260200160002060050160006101000a81548160ff02191690836004811115610c9d57610c9c611901565b5b02179055505b837f7e23ae46ba6f2d2d27140d64cbc34853ff5ce84f07c807529a0ea00fb2070e2d8484604051610cd5929190611eeb565b60405180910390a250505050565b7f21702c8af46127c7fa207f89d0b0a8441bb32959a0ac7df790e9ab1a25c9892681565b610d108261043d565b610d19816111a1565b610d2383836112ae565b50505050565b7f21702c8af46127c7fa207f89d0b0a8441bb32959a0ac7df790e9ab1a25c98926610d53816111a1565b610d5b6114a8565b610d63611467565b60026004811115610d7757610d76611901565b5b6003600084815260200190815260200160002060050160009054906101000a900460ff166004811115610dad57610dac611901565b5b14610ded576040517f08c379a0000000000000000000000000000000000000000000000000000000008152600401610de490611f60565b60405180910390fd5b60046003600084815260200190815260200160002060050160006101000a81548160ff02191690836004811115610e2757610e26611901565b5b0217905550817fb74faa515c161a6aa3d68dd9ecf21d897dde4efbb1a2b72be2c86508f03417546003600085815260200190815260200160002060020154604051610e729190611f80565b60405180910390a2610e826114ee565b5050565b610e8e611467565b6004600086815260200190815260200160002060009054906101000a900460ff1615610eef576040517f08c379a0000000000000000000000000000000000000000000000000000000008152600401610ee690611fe7565b60405180910390fd5b60008311610f32576040517f08c379a0000000000000000000000000000000000000000000000000000000008152600401610f2990612053565b60405180910390fd5b6000845111610f76576040517f08c379a0000000000000000000000000000000000000000000000000000000008152600401610f6d906120bf565b60405180910390fd5b6000815111610fba576040517f08c379a0000000000000000000000000000000000000000000000000000000008152600401610fb19061212b565b60405180910390fd5b6040518060e0016040528086815260200185815260200184815260200183815260200182815260200160006004811115610ff757610ff6611901565b5b8152602001428152506003600087815260200190815260200160002060008201518160000155602082015181600101908161103291906122f7565b5060408201518160020155606082015181600301908161105291906122f7565b50608082015181600401908161106891906122f7565b5060a08201518160050160006101000a81548160ff0219169083600481111561109457611093611901565b5b021790555060c0820151816006015590505060016004600087815260200190815260200160002060006101000a81548160ff021916908315150217905550847fef6509725cfc4207db4d3de56b281f867c62373b46edf0edd497f25875c7b5e785856040516111049291906123c9565b60405180910390a25050505050565b7fc8f5b4140cca307cd927e59cbeea8291bffeee228fc677f0fa059aef7b4dd8d581565b60007f01ffc9a7000000000000000000000000000000000000000000000000000000007bffffffffffffffffffffffffffffffffffffffffffffffffffffffff1916827bffffffffffffffffffffffffffffffffffffffffffffffffffffffff1916149050919050565b6111b2816111ad6112a6565b6114f8565b50565b60006111c18383610899565b61129b57600180600085815260200190815260200160002060000160008473ffffffffffffffffffffffffffffffffffffffff1673ffffffffffffffffffffffffffffffffffffffff16815260200190815260200160002060006101000a81548160ff0219169083151502179055506112386112a6565b73ffffffffffffffffffffffffffffffffffffffff168273ffffffffffffffffffffffffffffffffffffffff16847f2f8788117e7eff1d82e926ec794901d17c78024a50270940304540a733656f0d60405160405180910390a4600190506112a0565b600090505b92915050565b600033905090565b60006112ba8383610899565b156113965760006001600085815260200190815260200160002060000160008473ffffffffffffffffffffffffffffffffffffffff1673ffffffffffffffffffffffffffffffffffffffff16815260200190815260200160002060006101000a81548160ff0219169083151502179055506113336112a6565b73ffffffffffffffffffffffffffffffffffffffff168273ffffffffffffffffffffffffffffffffffffffff16847ff6391f5c32d9c69d2a47ea670b442974b53935d1edc7fd64eb21e047a839171b60405160405180910390a46001905061139b565b600090505b92915050565b6113a9611549565b6000600260006101000a81548160ff0219169083151502179055507f5db9ee0a495bf2e6ff9c91a7834c1ba4fdd244a5e8aa4e537bd38aeae4b073aa6113ed6112a6565b6040516113fa9190612408565b60405180910390a1565b61140c611467565b6001600260006101000a81548160ff0219169083151502179055507f62e78cea01bee320cd4e420270b5ea74000d11b0c9f74754ebdbfc544b05a2586114506112a6565b60405161145d9190612408565b60405180910390a1565b61146f61086a565b156114a6576040517fd93c066500000000000000000000000000000000000000000000000000000000815260040160405180910390fd5b565b6002600054036114e4576040517f3ee5aeb500000000000000000000000000000000000000000000000000000000815260040160405180910390fd5b6002600081905550565b6001600081905550565b6115028282610899565b6115455780826040517fe2517d3f00000000000000000000000000000000000000000000000000000000815260040161153c929190612423565b60405180910390fd5b5050565b61155161086a565b611587576040517f8dfc202b00000000000000000000000000000000000000000000000000000000815260040160405180910390fd5b565b6040518060e001604052806000815260200160608152602001600081526020016060815260200160608152602001600060048111156115cb576115ca611901565b5b8152602001600081525090565b6000604051905090565b600080fd5b600080fd5b60007fffffffff0000000000000000000000000000000000000000000000000000000082169050919050565b611621816115ec565b811461162c57600080fd5b50565b60008135905061163e81611618565b92915050565b60006020828403121561165a576116596115e2565b5b60006116688482850161162f565b91505092915050565b60008115159050919050565b61168681611671565b82525050565b60006020820190506116a1600083018461167d565b92915050565b6000819050919050565b6116ba816116a7565b81146116c557600080fd5b50565b6000813590506116d7816116b1565b92915050565b6000602082840312156116f3576116f26115e2565b5b6000611701848285016116c8565b91505092915050565b611713816116a7565b82525050565b600060208201905061172e600083018461170a565b92915050565b600073ffffffffffffffffffffffffffffffffffffffff82169050919050565b600061175f82611734565b9050919050565b61176f81611754565b811461177a57600080fd5b50565b60008135905061178c81611766565b92915050565b600080604083850312156117a9576117a86115e2565b5b60006117b7858286016116c8565b92505060206117c88582860161177d565b9150509250929050565b6000602082840312156117e8576117e76115e2565b5b60006117f68482850161177d565b91505092915050565b6000819050919050565b611812816117ff565b811461181d57600080fd5b50565b60008135905061182f81611809565b92915050565b60006020828403121561184b5761184a6115e2565b5b600061185984828501611820565b91505092915050565b61186b816117ff565b82525050565b600081519050919050565b600082825260208201905092915050565b60005b838110156118ab578082015181840152602081019050611890565b60008484015250505050565b6000601f19601f8301169050919050565b60006118d382611871565b6118dd818561187c565b93506118ed81856020860161188d565b6118f6816118b7565b840191505092915050565b7f4e487b7100000000000000000000000000000000000000000000000000000000600052602160045260246000fd5b6005811061194157611940611901565b5b50565b600081905061195282611930565b919050565b600061196282611944565b9050919050565b61197281611957565b82525050565b600060e0830160008301516119906000860182611862565b50602083015184820360208601526119a882826118c8565b91505060408301516119bd6040860182611862565b50606083015184820360608601526119d582826118c8565b915050608083015184820360808601526119ef82826118c8565b91505060a0830151611a0460a0860182611969565b5060c0830151611a1760c0860182611862565b508091505092915050565b60006020820190508181036000830152611a3c8184611978565b905092915050565b611a4d816117ff565b82525050565b600082825260208201905092915050565b6000611a6f82611871565b611a798185611a53565b9350611a8981856020860161188d565b611a92816118b7565b840191505092915050565b611aa681611957565b82525050565b600060e082019050611ac1600083018a611a44565b8181036020830152611ad38189611a64565b9050611ae26040830188611a44565b8181036060830152611af48187611a64565b90508181036080830152611b088186611a64565b9050611b1760a0830185611a9d565b611b2460c0830184611a44565b98975050505050505050565b611b3981611671565b8114611b4457600080fd5b50565b600081359050611b5681611b30565b92915050565b600080600060608486031215611b7557611b746115e2565b5b6000611b8386828701611820565b9350506020611b9486828701611b47565b9250506040611ba586828701611820565b9150509250925092565b600080fd5b600080fd5b7f4e487b7100000000000000000000000000000000000000000000000000000000600052604160045260246000fd5b611bf1826118b7565b810181811067ffffffffffffffff82111715611c1057611c0f611bb9565b5b80604052505050565b6000611c236115d8565b9050611c2f8282611be8565b919050565b600067ffffffffffffffff821115611c4f57611c4e611bb9565b5b611c58826118b7565b9050602081019050919050565b82818337600083830152505050565b6000611c87611c8284611c34565b611c19565b905082815260208101848484011115611ca357611ca2611bb4565b5b611cae848285611c65565b509392505050565b600082601f830112611ccb57611cca611baf565b5b8135611cdb848260208601611c74565b91505092915050565b600080600080600060a08688031215611d0057611cff6115e2565b5b6000611d0e88828901611820565b955050602086013567ffffffffffffffff811115611d2f57611d2e6115e7565b5b611d3b88828901611cb6565b9450506040611d4c88828901611820565b935050606086013567ffffffffffffffff811115611d6d57611d6c6115e7565b5b611d7988828901611cb6565b925050608086013567ffffffffffffffff811115611d9a57611d996115e7565b5b611da688828901611cb6565b9150509295509295909350565b7f4e487b7100000000000000000000000000000000000000000000000000000000600052602260045260246000fd5b60006002820490506001821680611dfa57607f821691505b602082108103611e0d57611e0c611db3565b5b50919050565b7f436c61696d20646f6573206e6f74206578697374000000000000000000000000600082015250565b6000611e49601483611a53565b9150611e5482611e13565b602082019050919050565b60006020820190508181036000830152611e7881611e3c565b9050919050565b7f496e76616c696420737461747573000000000000000000000000000000000000600082015250565b6000611eb5600e83611a53565b9150611ec082611e7f565b602082019050919050565b60006020820190508181036000830152611ee481611ea8565b9050919050565b6000604082019050611f00600083018561167d565b611f0d6020830184611a44565b9392505050565b7f436c61696d206e6f7420617070726f7665640000000000000000000000000000600082015250565b6000611f4a601283611a53565b9150611f5582611f14565b602082019050919050565b60006020820190508181036000830152611f7981611f3d565b9050919050565b6000602082019050611f956000830184611a44565b92915050565b7f436c61696d20616c726561647920657869737473000000000000000000000000600082015250565b6000611fd1601483611a53565b9150611fdc82611f9b565b602082019050919050565b6000602082019050818103600083015261200081611fc4565b9050919050565b7f416d6f756e74206d7573742062652067726561746572207468616e2030000000600082015250565b600061203d601d83611a53565b915061204882612007565b602082019050919050565b6000602082019050818103600083015261206c81612030565b9050919050565b7f496e76616c696420686f73706974616c20494400000000000000000000000000600082015250565b60006120a9601383611a53565b91506120b482612073565b602082019050919050565b600060208201905081810360008301526120d88161209c565b9050919050565b7f496e76616c696420495046532068617368000000000000000000000000000000600082015250565b6000612115601183611a53565b9150612120826120df565b602082019050919050565b6000602082019050818103600083015261214481612108565b9050919050565b60008190508160005260206000209050919050565b60006020601f8301049050919050565b600082821b905092915050565b6000600883026121ad7fffffffffffffffffffffffffffffffffffffffffffffffffffffffffffffffff82612170565b6121b78683612170565b95508019841693508086168417925050509392505050565b6000819050919050565b60006121f46121ef6121ea846117ff565b6121cf565b6117ff565b9050919050565b6000819050919050565b61220e836121d9565b61222261221a826121fb565b84845461217d565b825550505050565b600090565b61223761222a565b612242818484612205565b505050565b5b818110156122665761225b60008261222f565b600181019050612248565b5050565b601f8211156122ab5761227c8161214b565b61228584612160565b81016020851015612294578190505b6122a86122a085612160565b830182612247565b50505b505050565b600082821c905092915050565b60006122ce600019846008026122b0565b1980831691505092915050565b60006122e783836122bd565b9150826002028217905092915050565b61230082611871565b67ffffffffffffffff81111561231957612318611bb9565b5b6123238254611de2565b61232e82828561226a565b600060209050601f831160018114612361576000841561234f578287015190505b61235985826122db565b8655506123c1565b601f19841661236f8661214b565b60005b8281101561239757848901518255600182019150602085019450602081019050612372565b868310156123b457848901516123b0601f8916826122bd565b8355505b6001600288020188555050505b505050505050565b600060408201905081810360008301526123e38185611a64565b90506123f26020830184611a44565b9392505050565b61240281611754565b82525050565b600060208201905061241d60008301846123f9565b92915050565b600060408201905061243860008301856123f9565b612445602083018461170a565b939250505056fea2646970667358221220e7d43b14eeee6fefa1329d1e40d593a734db43dee8b3925774c0fcf693e66d3264736f6c63430008140033",
  "linkReferences": {},
  "deployedLinkReferences": {}
}